{
  "contractName": "ERC721",
  "abi": [
    {
      "inputs": [
        {
          "internalType": "string",
          "name": "name_",
          "type": "string"
        },
        {
          "internalType": "string",
          "name": "symbol_",
          "type": "string"
        }
      ],
      "stateMutability": "nonpayable",
      "type": "constructor"
    },
    {
      "anonymous": false,
      "inputs": [
        {
          "indexed": true,
          "internalType": "address",
          "name": "owner",
          "type": "address"
        },
        {
          "indexed": true,
          "internalType": "address",
          "name": "approved",
          "type": "address"
        },
        {
          "indexed": true,
          "internalType": "uint256",
          "name": "tokenId",
          "type": "uint256"
        }
      ],
      "name": "Approval",
      "type": "event"
    },
    {
      "anonymous": false,
      "inputs": [
        {
          "indexed": true,
          "internalType": "address",
          "name": "owner",
          "type": "address"
        },
        {
          "indexed": true,
          "internalType": "address",
          "name": "operator",
          "type": "address"
        },
        {
          "indexed": false,
          "internalType": "bool",
          "name": "approved",
          "type": "bool"
        }
      ],
      "name": "ApprovalForAll",
      "type": "event"
    },
    {
      "anonymous": false,
      "inputs": [
        {
          "indexed": true,
          "internalType": "address",
          "name": "from",
          "type": "address"
        },
        {
          "indexed": true,
          "internalType": "address",
          "name": "to",
          "type": "address"
        },
        {
          "indexed": true,
          "internalType": "uint256",
          "name": "tokenId",
          "type": "uint256"
        }
      ],
      "name": "Transfer",
      "type": "event"
    },
    {
      "inputs": [
        {
          "internalType": "bytes4",
          "name": "interfaceId",
          "type": "bytes4"
        }
      ],
      "name": "supportsInterface",
      "outputs": [
        {
          "internalType": "bool",
          "name": "",
          "type": "bool"
        }
      ],
      "stateMutability": "view",
      "type": "function"
    },
    {
      "inputs": [],
      "name": "name",
      "outputs": [
        {
          "internalType": "string",
          "name": "",
          "type": "string"
        }
      ],
      "stateMutability": "view",
      "type": "function"
    },
    {
      "inputs": [],
      "name": "symbol",
      "outputs": [
        {
          "internalType": "string",
          "name": "",
          "type": "string"
        }
      ],
      "stateMutability": "view",
      "type": "function"
    },
    {
      "inputs": [
        {
          "internalType": "uint256",
          "name": "tokenId",
          "type": "uint256"
        }
      ],
      "name": "tokenURI",
      "outputs": [
        {
          "internalType": "string",
          "name": "",
          "type": "string"
        }
      ],
      "stateMutability": "view",
      "type": "function"
    },
    {
      "inputs": [
        {
          "internalType": "address",
          "name": "owner",
          "type": "address"
        }
      ],
      "name": "balanceOf",
      "outputs": [
        {
          "internalType": "uint256",
          "name": "",
          "type": "uint256"
        }
      ],
      "stateMutability": "view",
      "type": "function"
    },
    {
      "inputs": [
        {
          "internalType": "uint256",
          "name": "tokenId",
          "type": "uint256"
        }
      ],
      "name": "ownerOf",
      "outputs": [
        {
          "internalType": "address",
          "name": "",
          "type": "address"
        }
      ],
      "stateMutability": "view",
      "type": "function"
    },
    {
      "inputs": [
        {
          "internalType": "address",
          "name": "to",
          "type": "address"
        },
        {
          "internalType": "uint256",
          "name": "tokenId",
          "type": "uint256"
        }
      ],
      "name": "approve",
      "outputs": [],
      "stateMutability": "nonpayable",
      "type": "function"
    },
    {
      "inputs": [
        {
          "internalType": "uint256",
          "name": "tokenId",
          "type": "uint256"
        }
      ],
      "name": "getApproved",
      "outputs": [
        {
          "internalType": "address",
          "name": "",
          "type": "address"
        }
      ],
      "stateMutability": "view",
      "type": "function"
    },
    {
      "inputs": [
        {
          "internalType": "address",
          "name": "operator",
          "type": "address"
        },
        {
          "internalType": "bool",
          "name": "approved",
          "type": "bool"
        }
      ],
      "name": "setApprovalForAll",
      "outputs": [],
      "stateMutability": "nonpayable",
      "type": "function"
    },
    {
      "inputs": [
        {
          "internalType": "address",
          "name": "owner",
          "type": "address"
        },
        {
          "internalType": "address",
          "name": "operator",
          "type": "address"
        }
      ],
      "name": "isApprovedForAll",
      "outputs": [
        {
          "internalType": "bool",
          "name": "",
          "type": "bool"
        }
      ],
      "stateMutability": "view",
      "type": "function"
    },
    {
      "inputs": [
        {
          "internalType": "address",
          "name": "from",
          "type": "address"
        },
        {
          "internalType": "address",
          "name": "to",
          "type": "address"
        },
        {
          "internalType": "uint256",
          "name": "tokenId",
          "type": "uint256"
        }
      ],
      "name": "transferFrom",
      "outputs": [],
      "stateMutability": "nonpayable",
      "type": "function"
    },
    {
      "inputs": [
        {
          "internalType": "address",
          "name": "from",
          "type": "address"
        },
        {
          "internalType": "address",
          "name": "to",
          "type": "address"
        },
        {
          "internalType": "uint256",
          "name": "tokenId",
          "type": "uint256"
        }
      ],
      "name": "safeTransferFrom",
      "outputs": [],
      "stateMutability": "nonpayable",
      "type": "function"
    },
    {
      "inputs": [
        {
          "internalType": "address",
          "name": "from",
          "type": "address"
        },
        {
          "internalType": "address",
          "name": "to",
          "type": "address"
        },
        {
          "internalType": "uint256",
          "name": "tokenId",
          "type": "uint256"
        },
        {
          "internalType": "bytes",
          "name": "data",
          "type": "bytes"
        }
      ],
      "name": "safeTransferFrom",
      "outputs": [],
      "stateMutability": "nonpayable",
      "type": "function"
    },
    {
      "inputs": [
        {
          "internalType": "address",
          "name": "from",
          "type": "address"
        },
        {
          "internalType": "address",
          "name": "to",
          "type": "address"
        },
        {
          "internalType": "uint256",
          "name": "tokenId",
          "type": "uint256"
        },
        {
          "internalType": "bytes",
          "name": "data",
          "type": "bytes"
        }
      ],
      "name": "_safeTransfer",
      "outputs": [],
      "stateMutability": "nonpayable",
      "type": "function"
    },
    {
      "inputs": [
        {
          "internalType": "address",
          "name": "",
          "type": "address"
        },
        {
          "internalType": "address",
          "name": "",
          "type": "address"
        },
        {
          "internalType": "uint256",
          "name": "",
          "type": "uint256"
        },
        {
          "internalType": "bytes",
          "name": "",
          "type": "bytes"
        }
      ],
      "name": "onERC721Received",
      "outputs": [
        {
          "internalType": "bytes4",
          "name": "",
          "type": "bytes4"
        }
      ],
      "stateMutability": "nonpayable",
      "type": "function"
    }
  ],
  "bytecode": "0x60806040523480156200001157600080fd5b50604051620025c7380380620025c78339818101604052810190620000379190620002be565b81600090805190602001906200004f92919062000071565b5080600190805190602001906200006892919062000071565b505050620003a7565b8280546200007f9062000372565b90600052602060002090601f016020900481019282620000a35760008555620000ef565b82601f10620000be57805160ff1916838001178555620000ef565b82800160010185558215620000ef579182015b82811115620000ee578251825591602001919060010190620000d1565b5b509050620000fe919062000102565b5090565b5b808211156200011d57600081600090555060010162000103565b5090565b6000604051905090565b600080fd5b600080fd5b600080fd5b600080fd5b6000601f19601f8301169050919050565b7f4e487b7100000000000000000000000000000000000000000000000000000000600052604160045260246000fd5b6200018a826200013f565b810181811067ffffffffffffffff82111715620001ac57620001ab62000150565b5b80604052505050565b6000620001c162000121565b9050620001cf82826200017f565b919050565b600067ffffffffffffffff821115620001f257620001f162000150565b5b620001fd826200013f565b9050602081019050919050565b60005b838110156200022a5780820151818401526020810190506200020d565b838111156200023a576000848401525b50505050565b6000620002576200025184620001d4565b620001b5565b9050828152602081018484840111156200027657620002756200013a565b5b620002838482856200020a565b509392505050565b600082601f830112620002a357620002a262000135565b5b8151620002b584826020860162000240565b91505092915050565b60008060408385031215620002d857620002d76200012b565b5b600083015167ffffffffffffffff811115620002f957620002f862000130565b5b62000307858286016200028b565b925050602083015167ffffffffffffffff8111156200032b576200032a62000130565b5b62000339858286016200028b565b9150509250929050565b7f4e487b7100000000000000000000000000000000000000000000000000000000600052602260045260246000fd5b600060028204905060018216806200038b57607f821691505b602082108103620003a157620003a062000343565b5b50919050565b61221080620003b76000396000f3fe608060405234801561001057600080fd5b50600436106100f55760003560e01c806342842e0e11610097578063a22cb46511610066578063a22cb46514610296578063b88d4fde146102b2578063c87b56dd146102ce578063e985e9c5146102fe576100f5565b806342842e0e146101fc5780636352211e1461021857806370a082311461024857806395d89b4114610278576100f5565b8063095ea7b3116100d3578063095ea7b314610178578063150b7a021461019457806323b872dd146101c457806324b6b8c0146101e0576100f5565b806301ffc9a7146100fa57806306fdde031461012a578063081812fc14610148575b600080fd5b610114600480360381019061010f91906112ec565b61032e565b6040516101219190611334565b60405180910390f35b610132610410565b60405161013f91906113e8565b60405180910390f35b610162600480360381019061015d9190611440565b6104a2565b60405161016f91906114ae565b60405180910390f35b610192600480360381019061018d91906114f5565b610527565b005b6101ae60048036038101906101a9919061166a565b61063e565b6040516101bb91906116fc565b60405180910390f35b6101de60048036038101906101d99190611717565b610652565b005b6101fa60048036038101906101f5919061166a565b6106b2565b005b61021660048036038101906102119190611717565b61070e565b005b610232600480360381019061022d9190611440565b61072e565b60405161023f91906114ae565b60405180910390f35b610262600480360381019061025d919061176a565b6107df565b60405161026f91906117a6565b60405180910390f35b610280610896565b60405161028d91906113e8565b60405180910390f35b6102b060048036038101906102ab91906117ed565b610928565b005b6102cc60048036038101906102c7919061166a565b61093e565b005b6102e860048036038101906102e39190611440565b6109a0565b6040516102f591906113e8565b60405180910390f35b6103186004803603810190610313919061182d565b610a3d565b6040516103259190611334565b60405180910390f35b60007f80ac58cd000000000000000000000000000000000000000000000000000000007bffffffffffffffffffffffffffffffffffffffffffffffffffffffff1916827bffffffffffffffffffffffffffffffffffffffffffffffffffffffff191614806103f957507f5b5e139f000000000000000000000000000000000000000000000000000000007bffffffffffffffffffffffffffffffffffffffffffffffffffffffff1916827bffffffffffffffffffffffffffffffffffffffffffffffffffffffff1916145b80610409575061040882610ad1565b5b9050919050565b60606000805461041f9061189c565b80601f016020809104026020016040519081016040528092919081815260200182805461044b9061189c565b80156104985780601f1061046d57610100808354040283529160200191610498565b820191906000526020600020905b81548152906001019060200180831161047b57829003601f168201915b5050505050905090565b60006104ad82610b3b565b6104ec576040517f08c379a00000000000000000000000000000000000000000000000000000000081526004016104e39061193f565b60405180910390fd5b6004600083815260200190815260200160002060009054906101000a900473ffffffffffffffffffffffffffffffffffffffff169050919050565b60006105328261072e565b90508073ffffffffffffffffffffffffffffffffffffffff168373ffffffffffffffffffffffffffffffffffffffff16036105a2576040517f08c379a0000000000000000000000000000000000000000000000000000000008152600401610599906119d1565b60405180910390fd5b8073ffffffffffffffffffffffffffffffffffffffff166105c1610ba7565b73ffffffffffffffffffffffffffffffffffffffff1614806105f057506105ef816105ea610ba7565b610a3d565b5b61062f576040517f08c379a000000000000000000000000000000000000000000000000000000000815260040161062690611a63565b60405180910390fd5b6106398383610baf565b505050565b600063150b7a0260e01b9050949350505050565b61066361065d610ba7565b82610c68565b6106a2576040517f08c379a000000000000000000000000000000000000000000000000000000000815260040161069990611af5565b60405180910390fd5b6106ad838383610d46565b505050565b6106bd848484610d46565b6106c984848484610f96565b610708576040517f08c379a00000000000000000000000000000000000000000000000000000000081526004016106ff90611b87565b60405180910390fd5b50505050565b6107298383836040518060200160405280600081525061093e565b505050565b6000806002600084815260200190815260200160002060009054906101000a900473ffffffffffffffffffffffffffffffffffffffff169050600073ffffffffffffffffffffffffffffffffffffffff168173ffffffffffffffffffffffffffffffffffffffff16036107d6576040517f08c379a00000000000000000000000000000000000000000000000000000000081526004016107cd90611c19565b60405180910390fd5b80915050919050565b60008073ffffffffffffffffffffffffffffffffffffffff168273ffffffffffffffffffffffffffffffffffffffff160361084f576040517f08c379a000000000000000000000000000000000000000000000000000000000815260040161084690611cab565b60405180910390fd5b600360008373ffffffffffffffffffffffffffffffffffffffff1673ffffffffffffffffffffffffffffffffffffffff168152602001908152602001600020549050919050565b6060600180546108a59061189c565b80601f01602080910402602001604051908101604052809291908181526020018280546108d19061189c565b801561091e5780601f106108f35761010080835404028352916020019161091e565b820191906000526020600020905b81548152906001019060200180831161090157829003601f168201915b5050505050905090565b61093a610933610ba7565b83836110da565b5050565b61094f610949610ba7565b83610c68565b61098e576040517f08c379a000000000000000000000000000000000000000000000000000000000815260040161098590611af5565b60405180910390fd5b61099a848484846106b2565b50505050565b60606109ab82610b3b565b6109ea576040517f08c379a00000000000000000000000000000000000000000000000000000000081526004016109e190611d3d565b60405180910390fd5b60006109f4611246565b90506000815111610a145760405180602001604052806000815250610a35565b80604051602001610a259190611d99565b6040516020818303038152906040525b915050919050565b6000600560008473ffffffffffffffffffffffffffffffffffffffff1673ffffffffffffffffffffffffffffffffffffffff16815260200190815260200160002060008373ffffffffffffffffffffffffffffffffffffffff1673ffffffffffffffffffffffffffffffffffffffff16815260200190815260200160002060009054906101000a900460ff16905092915050565b60007f01ffc9a7000000000000000000000000000000000000000000000000000000007bffffffffffffffffffffffffffffffffffffffffffffffffffffffff1916827bffffffffffffffffffffffffffffffffffffffffffffffffffffffff1916149050919050565b60008073ffffffffffffffffffffffffffffffffffffffff166002600084815260200190815260200160002060009054906101000a900473ffffffffffffffffffffffffffffffffffffffff1673ffffffffffffffffffffffffffffffffffffffff1614159050919050565b600033905090565b816004600083815260200190815260200160002060006101000a81548173ffffffffffffffffffffffffffffffffffffffff021916908373ffffffffffffffffffffffffffffffffffffffff160217905550808273ffffffffffffffffffffffffffffffffffffffff16610c228361072e565b73ffffffffffffffffffffffffffffffffffffffff167f8c5be1e5ebec7d5bd14f71427d1e84f3dd0314c0f7b2291e5b200ac8c7c3b92560405160405180910390a45050565b6000610c7382610b3b565b610cb2576040517f08c379a0000000000000000000000000000000000000000000000000000000008152600401610ca990611e22565b60405180910390fd5b6000610cbd8361072e565b90508073ffffffffffffffffffffffffffffffffffffffff168473ffffffffffffffffffffffffffffffffffffffff161480610cff5750610cfe8185610a3d565b5b80610d3d57508373ffffffffffffffffffffffffffffffffffffffff16610d25846104a2565b73ffffffffffffffffffffffffffffffffffffffff16145b91505092915050565b8273ffffffffffffffffffffffffffffffffffffffff16610d668261072e565b73ffffffffffffffffffffffffffffffffffffffff1614610dbc576040517f08c379a0000000000000000000000000000000000000000000000000000000008152600401610db390611eb4565b60405180910390fd5b600073ffffffffffffffffffffffffffffffffffffffff168273ffffffffffffffffffffffffffffffffffffffff1603610e2b576040517f08c379a0000000000000000000000000000000000000000000000000000000008152600401610e2290611f20565b60405180910390fd5b610e36600082610baf565b6001600360008573ffffffffffffffffffffffffffffffffffffffff1673ffffffffffffffffffffffffffffffffffffffff1681526020019081526020016000206000828254610e869190611f6f565b925050819055506001600360008473ffffffffffffffffffffffffffffffffffffffff1673ffffffffffffffffffffffffffffffffffffffff1681526020019081526020016000206000828254610edd9190611fa3565b92505081905550816002600083815260200190815260200160002060006101000a81548173ffffffffffffffffffffffffffffffffffffffff021916908373ffffffffffffffffffffffffffffffffffffffff160217905550808273ffffffffffffffffffffffffffffffffffffffff168473ffffffffffffffffffffffffffffffffffffffff167fddf252ad1be2c89b69c2b068fc378daa952ba7f163c4a11628f55a4df523b3ef60405160405180910390a4505050565b6000610fb78473ffffffffffffffffffffffffffffffffffffffff1661125d565b156110cd578373ffffffffffffffffffffffffffffffffffffffff1663150b7a02610fe0610ba7565b8786866040518563ffffffff1660e01b8152600401611002949392919061204e565b6020604051808303816000875af192505050801561103e57506040513d601f19601f8201168201806040525081019061103b91906120af565b60015b61107d576040517f08c379a00000000000000000000000000000000000000000000000000000000081526004016110749061214e565b60405180910390fd5b63150b7a0260e01b7bffffffffffffffffffffffffffffffffffffffffffffffffffffffff1916817bffffffffffffffffffffffffffffffffffffffffffffffffffffffff1916149150506110d2565b600190505b949350505050565b8173ffffffffffffffffffffffffffffffffffffffff168373ffffffffffffffffffffffffffffffffffffffff1603611148576040517f08c379a000000000000000000000000000000000000000000000000000000000815260040161113f906121ba565b60405180910390fd5b80600560008573ffffffffffffffffffffffffffffffffffffffff1673ffffffffffffffffffffffffffffffffffffffff16815260200190815260200160002060008473ffffffffffffffffffffffffffffffffffffffff1673ffffffffffffffffffffffffffffffffffffffff16815260200190815260200160002060006101000a81548160ff0219169083151502179055508173ffffffffffffffffffffffffffffffffffffffff168373ffffffffffffffffffffffffffffffffffffffff167f17307eab39ab6107e8899845ad3d59bd9653f200f220920489ca2b5937696c31836040516112399190611334565b60405180910390a3505050565b606060405180602001604052806000815250905090565b6000808273ffffffffffffffffffffffffffffffffffffffff163b119050919050565b6000604051905090565b600080fd5b600080fd5b60007fffffffff0000000000000000000000000000000000000000000000000000000082169050919050565b6112c981611294565b81146112d457600080fd5b50565b6000813590506112e6816112c0565b92915050565b6000602082840312156113025761130161128a565b5b6000611310848285016112d7565b91505092915050565b60008115159050919050565b61132e81611319565b82525050565b60006020820190506113496000830184611325565b92915050565b600081519050919050565b600082825260208201905092915050565b60005b8381101561138957808201518184015260208101905061136e565b83811115611398576000848401525b50505050565b6000601f19601f8301169050919050565b60006113ba8261134f565b6113c4818561135a565b93506113d481856020860161136b565b6113dd8161139e565b840191505092915050565b6000602082019050818103600083015261140281846113af565b905092915050565b6000819050919050565b61141d8161140a565b811461142857600080fd5b50565b60008135905061143a81611414565b92915050565b6000602082840312156114565761145561128a565b5b60006114648482850161142b565b91505092915050565b600073ffffffffffffffffffffffffffffffffffffffff82169050919050565b60006114988261146d565b9050919050565b6114a88161148d565b82525050565b60006020820190506114c3600083018461149f565b92915050565b6114d28161148d565b81146114dd57600080fd5b50565b6000813590506114ef816114c9565b92915050565b6000806040838503121561150c5761150b61128a565b5b600061151a858286016114e0565b925050602061152b8582860161142b565b9150509250929050565b600080fd5b600080fd5b7f4e487b7100000000000000000000000000000000000000000000000000000000600052604160045260246000fd5b6115778261139e565b810181811067ffffffffffffffff821117156115965761159561153f565b5b80604052505050565b60006115a9611280565b90506115b5828261156e565b919050565b600067ffffffffffffffff8211156115d5576115d461153f565b5b6115de8261139e565b9050602081019050919050565b82818337600083830152505050565b600061160d611608846115ba565b61159f565b9050828152602081018484840111156116295761162861153a565b5b6116348482856115eb565b509392505050565b600082601f83011261165157611650611535565b5b81356116618482602086016115fa565b91505092915050565b600080600080608085870312156116845761168361128a565b5b6000611692878288016114e0565b94505060206116a3878288016114e0565b93505060406116b48782880161142b565b925050606085013567ffffffffffffffff8111156116d5576116d461128f565b5b6116e18782880161163c565b91505092959194509250565b6116f681611294565b82525050565b600060208201905061171160008301846116ed565b92915050565b6000806000606084860312156117305761172f61128a565b5b600061173e868287016114e0565b935050602061174f868287016114e0565b92505060406117608682870161142b565b9150509250925092565b6000602082840312156117805761177f61128a565b5b600061178e848285016114e0565b91505092915050565b6117a08161140a565b82525050565b60006020820190506117bb6000830184611797565b92915050565b6117ca81611319565b81146117d557600080fd5b50565b6000813590506117e7816117c1565b92915050565b600080604083850312156118045761180361128a565b5b6000611812858286016114e0565b9250506020611823858286016117d8565b9150509250929050565b600080604083850312156118445761184361128a565b5b6000611852858286016114e0565b9250506020611863858286016114e0565b9150509250929050565b7f4e487b7100000000000000000000000000000000000000000000000000000000600052602260045260246000fd5b600060028204905060018216806118b457607f821691505b6020821081036118c7576118c661186d565b5b50919050565b7f4552433732313a20617070726f76656420717565727920666f72206e6f6e657860008201527f697374656e7420746f6b656e0000000000000000000000000000000000000000602082015250565b6000611929602c8361135a565b9150611934826118cd565b604082019050919050565b600060208201905081810360008301526119588161191c565b9050919050565b7f4552433732313a20617070726f76616c20746f2063757272656e74206f776e6560008201527f7200000000000000000000000000000000000000000000000000000000000000602082015250565b60006119bb60218361135a565b91506119c68261195f565b604082019050919050565b600060208201905081810360008301526119ea816119ae565b9050919050565b7f4552433732313a20617070726f76652063616c6c6572206973206e6f74206f7760008201527f6e6572206e6f7220617070726f76656420666f7220616c6c0000000000000000602082015250565b6000611a4d60388361135a565b9150611a58826119f1565b604082019050919050565b60006020820190508181036000830152611a7c81611a40565b9050919050565b7f4552433732313a207472616e736665722063616c6c6572206973206e6f74206f60008201527f776e6572206e6f7220617070726f766564000000000000000000000000000000602082015250565b6000611adf60318361135a565b9150611aea82611a83565b604082019050919050565b60006020820190508181036000830152611b0e81611ad2565b9050919050565b7f4552433732313a207472616e7366657220746f206e6f6e20455243373231526560008201527f63656976657220696d706c656d656e7465720000000000000000000000000000602082015250565b6000611b7160328361135a565b9150611b7c82611b15565b604082019050919050565b60006020820190508181036000830152611ba081611b64565b9050919050565b7f4552433732313a206f776e657220717565727920666f72206e6f6e657869737460008201527f656e7420746f6b656e0000000000000000000000000000000000000000000000602082015250565b6000611c0360298361135a565b9150611c0e82611ba7565b604082019050919050565b60006020820190508181036000830152611c3281611bf6565b9050919050565b7f4552433732313a2061646472657373207a65726f206973206e6f74206120766160008201527f6c6964206f776e65720000000000000000000000000000000000000000000000602082015250565b6000611c9560298361135a565b9150611ca082611c39565b604082019050919050565b60006020820190508181036000830152611cc481611c88565b9050919050565b7f4552433732314d657461646174613a2055524920717565727920666f72206e6f60008201527f6e6578697374656e7420746f6b656e0000000000000000000000000000000000602082015250565b6000611d27602f8361135a565b9150611d3282611ccb565b604082019050919050565b60006020820190508181036000830152611d5681611d1a565b9050919050565b600081905092915050565b6000611d738261134f565b611d7d8185611d5d565b9350611d8d81856020860161136b565b80840191505092915050565b6000611da58284611d68565b915081905092915050565b7f4552433732313a206f70657261746f7220717565727920666f72206e6f6e657860008201527f697374656e7420746f6b656e0000000000000000000000000000000000000000602082015250565b6000611e0c602c8361135a565b9150611e1782611db0565b604082019050919050565b60006020820190508181036000830152611e3b81611dff565b9050919050565b7f4552433732313a207472616e736665722066726f6d20696e636f72726563742060008201527f6f776e6572000000000000000000000000000000000000000000000000000000602082015250565b6000611e9e60258361135a565b9150611ea982611e42565b604082019050919050565b60006020820190508181036000830152611ecd81611e91565b9050919050565b7f4552433732313a207472616e7366657220746f207a65726f2061646472657373600082015250565b6000611f0a60208361135a565b9150611f1582611ed4565b602082019050919050565b60006020820190508181036000830152611f3981611efd565b9050919050565b7f4e487b7100000000000000000000000000000000000000000000000000000000600052601160045260246000fd5b6000611f7a8261140a565b9150611f858361140a565b925082821015611f9857611f97611f40565b5b828203905092915050565b6000611fae8261140a565b9150611fb98361140a565b9250827fffffffffffffffffffffffffffffffffffffffffffffffffffffffffffffffff03821115611fee57611fed611f40565b5b828201905092915050565b600081519050919050565b600082825260208201905092915050565b600061202082611ff9565b61202a8185612004565b935061203a81856020860161136b565b6120438161139e565b840191505092915050565b6000608082019050612063600083018761149f565b612070602083018661149f565b61207d6040830185611797565b818103606083015261208f8184612015565b905095945050505050565b6000815190506120a9816112c0565b92915050565b6000602082840312156120c5576120c461128a565b5b60006120d38482850161209a565b91505092915050565b7f4552433732313a207472616e7366657220746f206e6f6e20455243373231526560008201527f6365697665642e73656c6563746f720000000000000000000000000000000000602082015250565b6000612138602f8361135a565b9150612143826120dc565b604082019050919050565b600060208201905081810360008301526121678161212b565b9050919050565b7f4552433732313a20617070726f766520746f2063616c6c657200000000000000600082015250565b60006121a460198361135a565b91506121af8261216e565b602082019050919050565b600060208201905081810360008301526121d381612197565b905091905056fea2646970667358221220cfdc32276e8434454bb247b959ed9073d4a21fed1982685c9ab396db5ff9141e64736f6c634300080d0033",
  "immutableReferences": {},
  "source": "// SPDX-License-Identifier: MIT\n\npragma solidity ^0.8.0;\n\nimport \"./IERC721.sol\";\nimport \"./IERC721Receiver.sol\";\nimport \"./IERC721Metadata.sol\";\nimport \"./introspection/ERC165.sol\";\nimport \"./utils/Context.sol\";\nimport \"./utils/Address.sol\";\nimport \"./utils/Strings.sol\";\nimport \"./utils/SafeMath.sol\";\n\ncontract ERC721 is IERC721, IERC721Receiver, IERC721Metadata, ERC165, Context {\n\n    using Address for address;\n    using Strings for uint256;\n\n    string private _name;\n    string private _symbol;\n\n    mapping(uint256 => address) private _owners;\n\n    mapping(address => uint256) private _balances;\n\n    mapping(uint256 => address) private _tokenApprovals;\n\n    mapping(address => mapping(address => bool)) private _operatorApprovals;\n\n    constructor(string memory name_, string memory symbol_) {\n        _name = name_;\n        _symbol = symbol_;\n    }\n\n    /*  \n        Implements IERC165\n    */\n    function supportsInterface(bytes4 interfaceId) public view virtual override returns(bool) {\n        return interfaceId == type(IERC721).interfaceId || \n               interfaceId == type(IERC721Metadata).interfaceId || \n               super.supportsInterface(interfaceId);\n    }\n\n    /*  \n        Get value of state value\n        Implements IERC721Metadata\n    */\n    function name() public view virtual override returns(string memory) {\n        return _name;\n    }\n\n    function symbol() public view virtual override returns(string memory) {\n        return _symbol;\n    }\n\n    function tokenURI(uint256 tokenId) public view virtual override returns (string memory) {\n        require(_exists(tokenId), \"ERC721Metadata: URI query for nonexistent token\");\n        string memory baseURI = _baseURI();\n        return bytes(baseURI).length > 0 ? string(abi.encodePacked(baseURI)) : \"\";\n    }\n\n    function _baseURI() internal view virtual returns (string memory) {\n        return \"\"; //URI prefix example: https://ipfs.io/ipfs\n    }\n    \n    /*  \n        Related Variables : `_balances`\n    */\n    function balanceOf(address owner) public view virtual override returns (uint256) {\n        require(owner != address(0), \"ERC721: address zero is not a valid owner\");\n        return _balances[owner];\n    }\n\n    /*  \n        Related Variables : `_owners`\n    */\n    function ownerOf(uint256 tokenId) public view virtual override returns (address) {\n        address owner = _owners[tokenId];\n        require(owner != address(0), \"ERC721: owner query for nonexistent token\");\n        return owner;\n    }\n    \n    function _exists(uint256 tokenId) internal view virtual returns (bool) {\n        return _owners[tokenId] != address(0);\n    }\n\n    /*  \n        Related Variables : `_balances` & `_owners`\n    */\n    function _mint(address to, uint256 tokenId) internal virtual {\n        require(to != address(0), \"ERC721: mint to the zero address\");\n        require(!_exists(tokenId), \"ERC721: token already minted\");\n        /*  Hook function place. Declare below function if you want.\n\n            ```solidity\n            function _beforeTokenTransfer(address from, address to, uint256 tokenId) internal virtual {}\n            ```\n        */\n        _balances[to] += 1;\n        _owners[tokenId] = to;\n\n        emit Transfer(address(0), to, tokenId);\n\n        /*  Hook function place. Declare below function if you want.\n\n            ```solidity\n            function _afterTokenTransfer(address from, address to, uint256 tokenId) internal virtual {}\n            ```\n        */\n    }\n\n    /*  \n        Related Variables : `_balances` & `_owners` & `tokenApprovals`\n    */\n    function _burn(uint256 tokenId) internal virtual {\n        address owner = ERC721.ownerOf(tokenId);\n        /*  Hook function place. Declare below function if you want.\n\n            ```solidity\n            function _beforeTokenTransfer(address from, address to, uint256 tokenId) internal virtual {}\n            ```\n        */\n        _approve(address(0), tokenId); // tokenId --> address(0) : no one\n\n        _balances[owner] -= 1;\n        delete _owners[tokenId];\n\n        emit Transfer(owner, address(0), tokenId);\n        /*  Hook function place. Declare below function if you want.\n\n            ```solidity\n            function _afterTokenTransfer(address from, address to, uint256 tokenId) internal virtual {}\n            ```\n        */\n    }\n\n\n    /*  \n        Related Variables : `_tokenApprovals`\n    */\n    function approve(address to, uint256 tokenId) public virtual override {\n        address owner = ERC721.ownerOf(tokenId);\n        require(to != owner, \"ERC721: approval to current owner\");\n        require(_msgSender() == owner || isApprovedForAll(owner, _msgSender()), \"ERC721: approve caller is not owner nor approved for all\");\n        // operator also can approve\n        _approve(to, tokenId);\n    }\n\n    function getApproved(uint tokenId) public view virtual override returns (address) {\n        require(_exists(tokenId), \"ERC721: approved query for nonexistent token\");\n\n        return _tokenApprovals[tokenId];\n    }\n\n    function _approve(address to, uint256 tokenId) internal virtual {\n        _tokenApprovals[tokenId] = to;\n        emit Approval(ERC721.ownerOf(tokenId), to, tokenId);\n    }\n\n    function _transfer(address from, address to, uint256 tokenId) internal virtual {\n        require(ERC721.ownerOf(tokenId) == from, \"ERC721: transfer from incorrect owner\");\n        require(to != address(0), \"ERC721: transfer to zero address\");\n        /*  Hook function place. Declare below function if you want.\n\n            ```solidity\n            function _beforeTokenTransfer(address from, address to, uint256 tokenId) internal virtual {}\n            ```\n        */\n        _approve(address(0), tokenId); // Clear\n\n        _balances[from] -= 1;\n        _balances[to] += 1;\n        _owners[tokenId] = to;\n\n        emit Transfer(from, to, tokenId);\n        /*  Hook function place. Declare below function if you want.\n\n            ```solidity\n            function _afterTokenTransfer(address from, address to, uint256 tokenId) internal virtual {}\n            ```\n        */\n\n    }\n\n    /*  \n        Related Variables : `_operatorApprovals`\n    */\n    function setApprovalForAll(address operator, bool approved) public virtual override {\n        _setApprovalForAll(_msgSender(), operator, approved);\n    }\n\n    function _setApprovalForAll(address owner, address operator, bool approved) internal virtual{\n        require(owner != operator, \"ERC721: approve to caller\");\n        _operatorApprovals[owner][operator] = approved;\n        emit ApprovalForAll(owner, operator, approved);\n    }\n\n    function isApprovedForAll(address owner, address operator) public view virtual override returns (bool) {\n        return _operatorApprovals[owner][operator];\n    }\n\n    /*  \n        Related Variables : `_tokenApprovals` && `_operatorApprovals`    \n    */\n    function _isApprovedOrOwner(address spender, uint256 tokenId) internal view virtual returns (bool) {\n        require(_exists(tokenId), \"ERC721: operator query for nonexistent token\");\n        address owner = ERC721.ownerOf(tokenId);\n        return (spender == owner || isApprovedForAll(owner, spender) || getApproved(tokenId) == spender);\n    }\n\n    function transferFrom(address from, address to, uint256 tokenId) public virtual override{\n        require(_isApprovedOrOwner(_msgSender(), tokenId), \"ERC721: transfer caller is not owner nor approved\");\n\n        _transfer(from, to, tokenId);\n    }\n\n    /*  \n        Safe Functions Section\n         - transfer()\n         - mint()\n    */\n    function _checkOnERC721Received(address from, address to, uint256 tokenId, bytes memory data) private returns (bool) {\n        if(to.isContract()) {\n            try IERC721Receiver(to).onERC721Received(_msgSender(), from, tokenId, data) returns (bytes4 retval) { //retval means \"return value\"\n                return retval == IERC721Receiver.onERC721Received.selector;\n            // } catch (bytes memory reason) {\n            } catch { \n                revert(\"ERC721: transfer to non ERC721Received.selector\");\n                /** \n                 * @custom:author rhie-coder\n                 * @dev Since I didn't fully understand the code below, I will comment on it.\n                 * ```solidity\n                 * if(reason.length == 0) {\n                 *     revert(\"ERC721: transfer to non ERC721Received.selector\");\n                 * } else {\n                 *     assembly {\n                 *         //-- Yul\n                 *         //The byte sequence must not exceed 32 bytes. \n                 *         //The byte sequence is padded with zeros on the right to reach 32 bytes in length; \n                 *         //in other words, the string is stored left-aligned.\n                 *         revert(add(32, reason), mload(reason))\n                 *     }\n                 * }\n                 * ```\n                 */  \n            }\n        } else {\n            return true;\n        }\n    }\n\n    function safeTransferFrom(\n        address from,\n        address to,\n        uint256 tokenId\n    ) public virtual override {\n        safeTransferFrom(from, to, tokenId, \"\");\n    }\n\n    function safeTransferFrom(\n        address from,\n        address to,\n        uint256 tokenId,\n        bytes memory data\n    ) public virtual override {\n        require(_isApprovedOrOwner(_msgSender(), tokenId), \"ERC721: transfer caller is not owner nor approved\");\n        _safeTransfer(from, to, tokenId, data);\n    }\n\n    function _safeTransfer(address from, address to, uint256 tokenId, bytes memory data) public virtual {\n        _transfer(from, to, tokenId);\n        require(_checkOnERC721Received(from, to, tokenId, data), \"ERC721: transfer to non ERC721Receiver implementer\");\n    }\n\n    function _safeMint(address to, uint256 tokenId) internal virtual {\n        _safeMint(to, tokenId, \"\");\n    }\n\n    function _safeMint(address to, uint256 tokenId, bytes memory data) internal virtual {\n        _mint(to, tokenId);\n        require(_checkOnERC721Received(address(0), to, tokenId, data), \"ERC721: transfer to non ERC721Receiver implementer\");\n    }\n\n    /*  \n        Return Magic Value : Function Selector\n        --> `bytes4(keccak256(\"onERC721Received(address, address, uint256,bytes)\"))`\n\n        Maybe this function is optional, because there are checking behavior in `_checkOnERC721Received` function.\n    */\n    function onERC721Received(\n        address,\n        address,\n        uint256,\n        bytes memory\n    ) public virtual override returns (bytes4) {\n        return this.onERC721Received.selector; //0x150b7a02\n    }\n }",
  "sourcePath": "/home/ksrhie/rhither-project/blockchain/truffle/contracts/ERC-721/ERC721.sol",
  "compiler": {
    "name": "solc",
    "version": "0.8.13+commit.abaa5c0e.Emscripten.clang"
  },
  "schemaVersion": "3.4.7",
  "updatedAt": "2022-05-20T17:20:16.040Z",
  "devdoc": {
    "kind": "dev",
    "methods": {},
    "version": 1
  },
  "userdoc": {
    "kind": "user",
    "methods": {},
    "version": 1
  }
}