{
  "contractName": "SafeMath",
  "abi": [
    {
      "inputs": [
        {
          "internalType": "uint256",
          "name": "n1",
          "type": "uint256"
        },
        {
          "internalType": "uint256",
          "name": "n2",
          "type": "uint256"
        }
      ],
      "name": "add",
      "outputs": [
        {
          "internalType": "uint256",
          "name": "",
          "type": "uint256"
        }
      ],
      "stateMutability": "pure",
      "type": "function"
    },
    {
      "inputs": [
        {
          "internalType": "uint256",
          "name": "n1",
          "type": "uint256"
        },
        {
          "internalType": "uint256",
          "name": "n2",
          "type": "uint256"
        }
      ],
      "name": "sub",
      "outputs": [
        {
          "internalType": "uint256",
          "name": "",
          "type": "uint256"
        }
      ],
      "stateMutability": "pure",
      "type": "function"
    },
    {
      "inputs": [
        {
          "internalType": "uint256",
          "name": "n1",
          "type": "uint256"
        },
        {
          "internalType": "uint256",
          "name": "n2",
          "type": "uint256"
        }
      ],
      "name": "mul",
      "outputs": [
        {
          "internalType": "uint256",
          "name": "",
          "type": "uint256"
        }
      ],
      "stateMutability": "pure",
      "type": "function"
    },
    {
      "inputs": [
        {
          "internalType": "uint256",
          "name": "n1",
          "type": "uint256"
        },
        {
          "internalType": "uint256",
          "name": "n2",
          "type": "uint256"
        }
      ],
      "name": "div",
      "outputs": [
        {
          "internalType": "uint256",
          "name": "",
          "type": "uint256"
        }
      ],
      "stateMutability": "pure",
      "type": "function"
    },
    {
      "inputs": [
        {
          "internalType": "uint256",
          "name": "n1",
          "type": "uint256"
        },
        {
          "internalType": "uint256",
          "name": "n2",
          "type": "uint256"
        }
      ],
      "name": "mod",
      "outputs": [
        {
          "internalType": "uint256",
          "name": "",
          "type": "uint256"
        }
      ],
      "stateMutability": "pure",
      "type": "function"
    }
  ],
  "bytecode": "0x610693610053600b82828239805160001a607314610046577f4e487b7100000000000000000000000000000000000000000000000000000000600052600060045260246000fd5b30600052607381538281f3fe73000000000000000000000000000000000000000030146080604052600436106100615760003560e01c8063771602f714610066578063a391c15b14610096578063b67d77c5146100c6578063c8a4ac9c146100f6578063f43f523a14610126575b600080fd5b610080600480360381019061007b919061036b565b610156565b60405161008d91906103ba565b60405180910390f35b6100b060048036038101906100ab919061036b565b6101ab565b6040516100bd91906103ba565b60405180910390f35b6100e060048036038101906100db919061036b565b610208565b6040516100ed91906103ba565b60405180910390f35b610110600480360381019061010b919061036b565b61025d565b60405161011d91906103ba565b60405180910390f35b610140600480360381019061013b919061036b565b6102d3565b60405161014d91906103ba565b60405180910390f35b6000808284019050838110156101a1576040517f08c379a000000000000000000000000000000000000000000000000000000000815260040161019890610458565b60405180910390fd5b8091505092915050565b60008082116101ef576040517f08c379a00000000000000000000000000000000000000000000000000000000081526004016101e6906104ea565b60405180910390fd5b8183816101ff576101fe61050a565b5b04905092915050565b600080828403905082841015610253576040517f08c379a000000000000000000000000000000000000000000000000000000000815260040161024a906105ab565b60405180910390fd5b8091505092915050565b600080830361026f57600090506102cd565b60008284029050828482816102875761028661050a565b5b04146102c8576040517f08c379a00000000000000000000000000000000000000000000000000000000081526004016102bf9061063d565b60405180910390fd5b809150505b92915050565b6000808211610317576040517f08c379a000000000000000000000000000000000000000000000000000000000815260040161030e906104ea565b60405180910390fd5b8183816103275761032661050a565b5b06905092915050565b600080fd5b6000819050919050565b61034881610335565b811461035357600080fd5b50565b6000813590506103658161033f565b92915050565b6000806040838503121561038257610381610330565b5b600061039085828601610356565b92505060206103a185828601610356565b9150509250929050565b6103b481610335565b82525050565b60006020820190506103cf60008301846103ab565b92915050565b600082825260208201905092915050565b7f536166654d6174683a204164646974696f6e2063616e6e6f74206f766572666c60008201527f6f77000000000000000000000000000000000000000000000000000000000000602082015250565b60006104426022836103d5565b915061044d826103e6565b604082019050919050565b6000602082019050818103600083015261047181610435565b9050919050565b7f536166654d6174683a205468652064697669736f722063616e6e6f742062652060008201527f7a65726f00000000000000000000000000000000000000000000000000000000602082015250565b60006104d46024836103d5565b91506104df82610478565b604082019050919050565b60006020820190508181036000830152610503816104c7565b9050919050565b7f4e487b7100000000000000000000000000000000000000000000000000000000600052601260045260246000fd5b7f536166654d6174683a20537562737472616374696f6e2063616e6e6f74206f7660008201527f6572666c6f770000000000000000000000000000000000000000000000000000602082015250565b60006105956026836103d5565b91506105a082610539565b604082019050919050565b600060208201905081810360008301526105c481610588565b9050919050565b7f536166654d6174683a204d756c7469706c69636174696f6e2063616e6e6f742060008201527f6f766572666c6f77000000000000000000000000000000000000000000000000602082015250565b60006106276028836103d5565b9150610632826105cb565b604082019050919050565b600060208201905081810360008301526106568161061a565b905091905056fea264697066735822122014d50de40f03f892757531823b2bb87e665150c42bdc632b2b38cbca73575ad664736f6c634300080d0033",
  "immutableReferences": {},
  "source": "// SPDX-License-Identifier: MIT\n\npragma solidity ^0.8.0;\n\nlibrary SafeMath {\n\n    function add(uint256 n1, uint256 n2) external pure returns (uint256) {\n        unchecked {\n            uint256 result = n1 + n2;\n            require(result >= n1, \"SafeMath: Addition cannot overflow\");\n            return result;\n        }\n    }\n\n    function sub(uint256 n1, uint256 n2) external pure returns (uint256) {\n        unchecked {\n            uint256 result = n1 - n2;\n            require(n1 >= n2, \"SafeMath: Substraction cannot overflow\");\n            return result;\n        }\n    }\n\n    function mul(uint256 n1, uint256 n2) external pure returns (uint256) {\n        unchecked {\n            if( n1 == 0 ) {\n                return 0;\n            }\n            \n            uint256 result = n1 * n2;\n            require(result / n1 == n2, \"SafeMath: Multiplication cannot overflow\");\n            return result;\n        }\n    }\n\n    function div(uint256 n1, uint256 n2) external pure returns (uint256) {\n        unchecked {\n            require(n2 > 0, \"SafeMath: The divisor cannot be zero\");\n            return n1 / n2;\n        }\n    }\n\n    function mod(uint256 n1, uint256 n2) external pure returns (uint256) {\n        unchecked {\n            require(n2 > 0, \"SafeMath: The divisor cannot be zero\");\n            return n1 % n2;\n        }\n    }\n    \n}",
  "sourcePath": "/home/ksrhie/rhither-project/blockchain/truffle/contracts/ERC-721/utils/SafeMath.sol",
  "compiler": {
    "name": "solc",
    "version": "0.8.13+commit.abaa5c0e.Emscripten.clang"
  },
  "schemaVersion": "3.4.7",
  "updatedAt": "2022-05-20T17:20:16.186Z",
  "devdoc": {
    "kind": "dev",
    "methods": {},
    "version": 1
  },
  "userdoc": {
    "kind": "user",
    "methods": {},
    "version": 1
  }
}