{
  "contractName": "SimpleApp",
  "abi": [
    {
      "inputs": [],
      "name": "getNum",
      "outputs": [
        {
          "internalType": "uint256",
          "name": "",
          "type": "uint256"
        }
      ],
      "stateMutability": "view",
      "type": "function"
    },
    {
      "inputs": [],
      "name": "inc",
      "outputs": [],
      "stateMutability": "nonpayable",
      "type": "function"
    },
    {
      "inputs": [],
      "name": "dec",
      "outputs": [],
      "stateMutability": "nonpayable",
      "type": "function"
    }
  ],
  "bytecode": "0x608060405234801561001057600080fd5b506101bd806100206000396000f3fe608060405234801561001057600080fd5b50600436106100415760003560e01c8063371303c01461004657806367e0badb14610050578063b3bcfa821461006e575b600080fd5b61004e610078565b005b610058610091565b60405161006591906100cc565b60405180910390f35b61007661009a565b005b60008081548092919061008a90610116565b9190505550565b60008054905090565b6000808154809291906100ac9061015e565b9190505550565b6000819050919050565b6100c6816100b3565b82525050565b60006020820190506100e160008301846100bd565b92915050565b7f4e487b7100000000000000000000000000000000000000000000000000000000600052601160045260246000fd5b6000610121826100b3565b91507fffffffffffffffffffffffffffffffffffffffffffffffffffffffffffffffff8203610153576101526100e7565b5b600182019050919050565b6000610169826100b3565b91506000820361017c5761017b6100e7565b5b60018203905091905056fea26469706673582212201838e3055965625221dbb5b1d5301a470619190fa5b4de85258fc89c3a36658764736f6c634300080d0033",
  "immutableReferences": {},
  "source": "// SPDX-License-Identifier: MIT\n\npragma solidity ^0.8.0;\n\ncontract SimpleApp {\n    uint256 private _num;\n\n    function getNum() public view returns(uint256) {\n        return _num;\n    }\n\n    function inc() public {\n        _num++;\n    }\n\n    function dec() public {\n        _num--;\n    }\n}",
  "sourcePath": "/home/ksrhie/rhither-project/blockchain/truffle/Simple/contracts/SimpleApp.sol",
  "compiler": {
    "name": "solc",
    "version": "0.8.13+commit.abaa5c0e.Emscripten.clang"
  },
  "schemaVersion": "3.4.7",
  "updatedAt": "2022-05-19T06:30:58.511Z",
  "devdoc": {
    "kind": "dev",
    "methods": {},
    "version": 1
  },
  "userdoc": {
    "kind": "user",
    "methods": {},
    "version": 1
  }
}