{
  "contractName": "Market",
  "abi": [
    {
      "anonymous": false,
      "inputs": [
        {
          "indexed": false,
          "internalType": "uint256",
          "name": "listingId",
          "type": "uint256"
        },
        {
          "indexed": false,
          "internalType": "address",
          "name": "seller",
          "type": "address"
        }
      ],
      "name": "Cancel",
      "type": "event"
    },
    {
      "anonymous": false,
      "inputs": [
        {
          "indexed": false,
          "internalType": "uint256",
          "name": "listingId",
          "type": "uint256"
        },
        {
          "indexed": false,
          "internalType": "address",
          "name": "seller",
          "type": "address"
        },
        {
          "indexed": false,
          "internalType": "address",
          "name": "token",
          "type": "address"
        },
        {
          "indexed": false,
          "internalType": "uint256",
          "name": "tokenId",
          "type": "uint256"
        },
        {
          "indexed": false,
          "internalType": "uint256",
          "name": "price",
          "type": "uint256"
        }
      ],
      "name": "Listed",
      "type": "event"
    },
    {
      "anonymous": false,
      "inputs": [
        {
          "indexed": false,
          "internalType": "uint256",
          "name": "listingId",
          "type": "uint256"
        },
        {
          "indexed": false,
          "internalType": "address",
          "name": "buyer",
          "type": "address"
        },
        {
          "indexed": false,
          "internalType": "address",
          "name": "token",
          "type": "address"
        },
        {
          "indexed": false,
          "internalType": "uint256",
          "name": "tokenId",
          "type": "uint256"
        },
        {
          "indexed": false,
          "internalType": "uint256",
          "name": "price",
          "type": "uint256"
        }
      ],
      "name": "Sale",
      "type": "event"
    },
    {
      "inputs": [
        {
          "internalType": "address",
          "name": "token",
          "type": "address"
        },
        {
          "internalType": "uint256",
          "name": "tokenId",
          "type": "uint256"
        },
        {
          "internalType": "uint256",
          "name": "price",
          "type": "uint256"
        }
      ],
      "name": "listToken",
      "outputs": [],
      "stateMutability": "nonpayable",
      "type": "function"
    },
    {
      "inputs": [
        {
          "internalType": "uint256",
          "name": "listingId",
          "type": "uint256"
        }
      ],
      "name": "getListing",
      "outputs": [
        {
          "components": [
            {
              "internalType": "enum Market.ListingStatus",
              "name": "status",
              "type": "uint8"
            },
            {
              "internalType": "address",
              "name": "seller",
              "type": "address"
            },
            {
              "internalType": "address",
              "name": "token",
              "type": "address"
            },
            {
              "internalType": "uint256",
              "name": "tokenId",
              "type": "uint256"
            },
            {
              "internalType": "uint256",
              "name": "price",
              "type": "uint256"
            }
          ],
          "internalType": "struct Market.Listing",
          "name": "",
          "type": "tuple"
        }
      ],
      "stateMutability": "view",
      "type": "function",
      "constant": true
    },
    {
      "inputs": [
        {
          "internalType": "uint256",
          "name": "listingId",
          "type": "uint256"
        }
      ],
      "name": "buyToken",
      "outputs": [],
      "stateMutability": "payable",
      "type": "function",
      "payable": true
    },
    {
      "inputs": [
        {
          "internalType": "uint256",
          "name": "listingId",
          "type": "uint256"
        }
      ],
      "name": "cancel",
      "outputs": [],
      "stateMutability": "nonpayable",
      "type": "function"
    }
  ],
  "bytecode": "0x60806040526000805534801561001457600080fd5b50610fd2806100246000396000f3fe60806040526004361061003f5760003560e01c8063107a274a146100445780632d296bf11461008157806340e58ee51461009d5780637e07590d146100c6575b600080fd5b34801561005057600080fd5b5061006b60048036038101906100669190610a43565b6100ef565b6040516100789190610b9f565b60405180910390f35b61009b60048036038101906100969190610a43565b610217565b005b3480156100a957600080fd5b506100c460048036038101906100bf9190610a43565b610521565b005b3480156100d257600080fd5b506100ed60048036038101906100e89190610be6565b610767565b005b6100f761099b565b600160008381526020019081526020016000206040518060a00160405290816000820160009054906101000a900460ff16600281111561013a57610139610a70565b5b600281111561014c5761014b610a70565b5b81526020016000820160019054906101000a900473ffffffffffffffffffffffffffffffffffffffff1673ffffffffffffffffffffffffffffffffffffffff1673ffffffffffffffffffffffffffffffffffffffff1681526020016001820160009054906101000a900473ffffffffffffffffffffffffffffffffffffffff1673ffffffffffffffffffffffffffffffffffffffff1673ffffffffffffffffffffffffffffffffffffffff168152602001600282015481526020016003820154815250509050919050565b60006001600083815260200190815260200160002090506000600281111561024257610241610a70565b5b8160000160009054906101000a900460ff16600281111561026657610265610a70565b5b146102a6576040517f08c379a000000000000000000000000000000000000000000000000000000000815260040161029d90610c96565b60405180910390fd5b8060000160019054906101000a900473ffffffffffffffffffffffffffffffffffffffff1673ffffffffffffffffffffffffffffffffffffffff163373ffffffffffffffffffffffffffffffffffffffff1603610338576040517f08c379a000000000000000000000000000000000000000000000000000000000815260040161032f90610d02565b60405180910390fd5b806003015434101561037f576040517f08c379a000000000000000000000000000000000000000000000000000000000815260040161037690610d6e565b60405180910390fd5b60018160000160006101000a81548160ff021916908360028111156103a7576103a6610a70565b5b02179055508060010160009054906101000a900473ffffffffffffffffffffffffffffffffffffffff1673ffffffffffffffffffffffffffffffffffffffff166323b872dd303384600201546040518463ffffffff1660e01b815260040161041193929190610dac565b600060405180830381600087803b15801561042b57600080fd5b505af115801561043f573d6000803e3d6000fd5b505050508060000160019054906101000a900473ffffffffffffffffffffffffffffffffffffffff1673ffffffffffffffffffffffffffffffffffffffff166108fc82600301549081150290604051600060405180830381858888f193505050501580156104b1573d6000803e3d6000fd5b507ff3debaf22196a6ddf52a60fa71058cd7edf5e25bb98f4e96c994a5d4a9b0dd3e82338360010160009054906101000a900473ffffffffffffffffffffffffffffffffffffffff1684600201548560030154604051610515959493929190610de3565b60405180910390a15050565b60006001600083815260200190815260200160002090508060000160019054906101000a900473ffffffffffffffffffffffffffffffffffffffff1673ffffffffffffffffffffffffffffffffffffffff163373ffffffffffffffffffffffffffffffffffffffff16146105ca576040517f08c379a00000000000000000000000000000000000000000000000000000000081526004016105c190610e82565b60405180910390fd5b600060028111156105de576105dd610a70565b5b8160000160009054906101000a900460ff16600281111561060257610601610a70565b5b14610642576040517f08c379a000000000000000000000000000000000000000000000000000000000815260040161063990610c96565b60405180910390fd5b60028160000160006101000a81548160ff0219169083600281111561066a57610669610a70565b5b02179055508060010160009054906101000a900473ffffffffffffffffffffffffffffffffffffffff1673ffffffffffffffffffffffffffffffffffffffff166323b872dd303384600201546040518463ffffffff1660e01b81526004016106d493929190610dac565b600060405180830381600087803b1580156106ee57600080fd5b505af1158015610702573d6000803e3d6000fd5b505050507f8dd3c361eb2366ff27c2db0eb07b9261f1d052570742ab8c9a0c326f37aa576d828260000160019054906101000a900473ffffffffffffffffffffffffffffffffffffffff1660405161075b929190610ea2565b60405180910390a15050565b8273ffffffffffffffffffffffffffffffffffffffff166323b872dd3330856040518463ffffffff1660e01b81526004016107a493929190610dac565b600060405180830381600087803b1580156107be57600080fd5b505af11580156107d2573d6000803e3d6000fd5b5050505060006040518060a00160405280600060028111156107f7576107f6610a70565b5b81526020013373ffffffffffffffffffffffffffffffffffffffff1681526020018573ffffffffffffffffffffffffffffffffffffffff168152602001848152602001670de0b6b3a76400008461084e9190610efa565b815250905080600160008054815260200190815260200160002060008201518160000160006101000a81548160ff0219169083600281111561089357610892610a70565b5b021790555060208201518160000160016101000a81548173ffffffffffffffffffffffffffffffffffffffff021916908373ffffffffffffffffffffffffffffffffffffffff16021790555060408201518160010160006101000a81548173ffffffffffffffffffffffffffffffffffffffff021916908373ffffffffffffffffffffffffffffffffffffffff16021790555060608201518160020155608082015181600301559050507f723f73331eaee88eec7fc68ef60ab6ed15e4b90d0472b55eb92fa43910bab6dd60005433868686604051610976959493929190610de3565b60405180910390a160008081548092919061099090610f54565b919050555050505050565b6040518060a00160405280600060028111156109ba576109b9610a70565b5b8152602001600073ffffffffffffffffffffffffffffffffffffffff168152602001600073ffffffffffffffffffffffffffffffffffffffff16815260200160008152602001600081525090565b600080fd5b6000819050919050565b610a2081610a0d565b8114610a2b57600080fd5b50565b600081359050610a3d81610a17565b92915050565b600060208284031215610a5957610a58610a08565b5b6000610a6784828501610a2e565b91505092915050565b7f4e487b7100000000000000000000000000000000000000000000000000000000600052602160045260246000fd5b60038110610ab057610aaf610a70565b5b50565b6000819050610ac182610a9f565b919050565b6000610ad182610ab3565b9050919050565b610ae181610ac6565b82525050565b600073ffffffffffffffffffffffffffffffffffffffff82169050919050565b6000610b1282610ae7565b9050919050565b610b2281610b07565b82525050565b610b3181610a0d565b82525050565b60a082016000820151610b4d6000850182610ad8565b506020820151610b606020850182610b19565b506040820151610b736040850182610b19565b506060820151610b866060850182610b28565b506080820151610b996080850182610b28565b50505050565b600060a082019050610bb46000830184610b37565b92915050565b610bc381610b07565b8114610bce57600080fd5b50565b600081359050610be081610bba565b92915050565b600080600060608486031215610bff57610bfe610a08565b5b6000610c0d86828701610bd1565b9350506020610c1e86828701610a2e565b9250506040610c2f86828701610a2e565b9150509250925092565b600082825260208201905092915050565b7f4c697374696e67206973206e6f74206163746976650000000000000000000000600082015250565b6000610c80601583610c39565b9150610c8b82610c4a565b602082019050919050565b60006020820190508181036000830152610caf81610c73565b9050919050565b7f73656c6c65722063616e6e6f7420626520627579657200000000000000000000600082015250565b6000610cec601683610c39565b9150610cf782610cb6565b602082019050919050565b60006020820190508181036000830152610d1b81610cdf565b9050919050565b7f496e73756666696369656e74207061796d656e74000000000000000000000000600082015250565b6000610d58601483610c39565b9150610d6382610d22565b602082019050919050565b60006020820190508181036000830152610d8781610d4b565b9050919050565b610d9781610b07565b82525050565b610da681610a0d565b82525050565b6000606082019050610dc16000830186610d8e565b610dce6020830185610d8e565b610ddb6040830184610d9d565b949350505050565b600060a082019050610df86000830188610d9d565b610e056020830187610d8e565b610e126040830186610d8e565b610e1f6060830185610d9d565b610e2c6080830184610d9d565b9695505050505050565b7f4f6e6c792073656c6c65722063616e2063616e63656c206c697374696e670000600082015250565b6000610e6c601e83610c39565b9150610e7782610e36565b602082019050919050565b60006020820190508181036000830152610e9b81610e5f565b9050919050565b6000604082019050610eb76000830185610d9d565b610ec46020830184610d8e565b9392505050565b7f4e487b7100000000000000000000000000000000000000000000000000000000600052601160045260246000fd5b6000610f0582610a0d565b9150610f1083610a0d565b9250817fffffffffffffffffffffffffffffffffffffffffffffffffffffffffffffffff0483118215151615610f4957610f48610ecb565b5b828202905092915050565b6000610f5f82610a0d565b91507fffffffffffffffffffffffffffffffffffffffffffffffffffffffffffffffff8203610f9157610f90610ecb565b5b60018201905091905056fea264697066735822122076c49ee9dced9e3bb7d3383fc9935a8ad03087828cc5930387a35c6dfc74bb1a64736f6c634300080d0033",
  "immutableReferences": {},
  "source": "// SPDX-License-Identifier: MIT\n\npragma solidity ^0.8.0;\n\nimport \"./IERC721.sol\";\n\ncontract Market {\n\n    enum ListingStatus {\n        Active,\n        Sold,\n        Cancelled\n    }\n\n    struct Listing {\n        ListingStatus status;\n        address seller;\n        address token;\n        uint tokenId;\n        uint price;\n    }\n    \n    event Listed(\n        uint listingId,\n        address seller,\n        address token,\n        uint tokenId,\n        uint price\n    );\n\n    event Sale(\n        uint listingId,\n        address buyer,\n        address token,\n        uint tokenId,\n        uint price\n    );\n\n    event Cancel(\n        uint listingId,\n        address seller\n    );\n\n    uint private _listingId = 0;\n    mapping(uint => Listing) private _listings;\n\n    function listToken(address token, uint tokenId, uint price) external {\n\n        IERC721(token).transferFrom(msg.sender, address(this), tokenId);\n\n        Listing memory listing = Listing(\n            ListingStatus.Active, \n            msg.sender, \n            token, \n            tokenId, \n            price * 1 ether\n        );\n        _listings[_listingId] = listing;\n        \n        emit Listed(\n            _listingId, \n            msg.sender,\n            token, \n            tokenId, \n            price\n        );\n        \n        _listingId++;\n\n    }\n\n    function getListing(uint listingId) public view returns (Listing memory){\n        return _listings[listingId];\n    }\n\n    function buyToken(uint listingId) external payable{\n        Listing storage listing = _listings[listingId];\n\n        require(listing.status == ListingStatus.Active, \"Listing is not active\");\n        require(msg.sender != listing.seller, \"seller cannot be buyer\");\n        require(msg.value >= listing.price, \"Insufficient payment\");\n\n        listing.status = ListingStatus.Sold;\n\n        IERC721(listing.token).transferFrom(address(this), msg.sender, listing.tokenId);\n        payable(listing.seller).transfer(listing.price);\n\n        emit Sale(\n            listingId,\n            msg.sender,\n            listing.token,\n            listing.tokenId,\n            listing.price\n        );\n    }\n\n    function cancel(uint listingId) public {\n        Listing storage listing = _listings[listingId];\n\n        require(msg.sender == listing.seller, \"Only seller can cancel listing\");\n        require(listing.status == ListingStatus.Active, \"Listing is not active\");\n\n        listing.status = ListingStatus.Cancelled;\n\n        IERC721(listing.token).transferFrom(address(this), msg.sender, listing.tokenId);\n\n        emit Cancel(listingId, listing.seller);\n    }\n\n\n}\n",
  "sourcePath": "/home/ksrhie/rhither-project/beginner/contracts/Market.sol",
  "compiler": {
    "name": "solc",
    "version": "0.8.13+commit.abaa5c0e.Emscripten.clang"
  },
  "schemaVersion": "3.4.7",
  "updatedAt": "2022-05-17T17:35:24.012Z",
  "networkType": "ethereum",
  "devdoc": {
    "kind": "dev",
    "methods": {},
    "version": 1
  },
  "userdoc": {
    "kind": "user",
    "methods": {},
    "version": 1
  }
}