{
  "contractName": "NFT",
  "abi": [
    {
      "inputs": [],
      "stateMutability": "nonpayable",
      "type": "constructor"
    },
    {
      "anonymous": false,
      "inputs": [
        {
          "indexed": true,
          "internalType": "address",
          "name": "owner",
          "type": "address"
        },
        {
          "indexed": true,
          "internalType": "address",
          "name": "approved",
          "type": "address"
        },
        {
          "indexed": true,
          "internalType": "uint256",
          "name": "tokenId",
          "type": "uint256"
        }
      ],
      "name": "Approval",
      "type": "event"
    },
    {
      "anonymous": false,
      "inputs": [
        {
          "indexed": true,
          "internalType": "address",
          "name": "owner",
          "type": "address"
        },
        {
          "indexed": true,
          "internalType": "address",
          "name": "operator",
          "type": "address"
        },
        {
          "indexed": false,
          "internalType": "bool",
          "name": "approved",
          "type": "bool"
        }
      ],
      "name": "ApprovalForAll",
      "type": "event"
    },
    {
      "anonymous": false,
      "inputs": [
        {
          "indexed": true,
          "internalType": "address",
          "name": "from",
          "type": "address"
        },
        {
          "indexed": true,
          "internalType": "address",
          "name": "to",
          "type": "address"
        },
        {
          "indexed": true,
          "internalType": "uint256",
          "name": "tokenId",
          "type": "uint256"
        }
      ],
      "name": "Transfer",
      "type": "event"
    },
    {
      "inputs": [
        {
          "internalType": "address",
          "name": "to",
          "type": "address"
        },
        {
          "internalType": "uint256",
          "name": "tokenId",
          "type": "uint256"
        }
      ],
      "name": "approve",
      "outputs": [],
      "stateMutability": "nonpayable",
      "type": "function"
    },
    {
      "inputs": [
        {
          "internalType": "address",
          "name": "owner",
          "type": "address"
        }
      ],
      "name": "balanceOf",
      "outputs": [
        {
          "internalType": "uint256",
          "name": "",
          "type": "uint256"
        }
      ],
      "stateMutability": "view",
      "type": "function",
      "constant": true
    },
    {
      "inputs": [
        {
          "internalType": "uint256",
          "name": "tokenId",
          "type": "uint256"
        }
      ],
      "name": "getApproved",
      "outputs": [
        {
          "internalType": "address",
          "name": "",
          "type": "address"
        }
      ],
      "stateMutability": "view",
      "type": "function",
      "constant": true
    },
    {
      "inputs": [
        {
          "internalType": "address",
          "name": "owner",
          "type": "address"
        },
        {
          "internalType": "address",
          "name": "operator",
          "type": "address"
        }
      ],
      "name": "isApprovedForAll",
      "outputs": [
        {
          "internalType": "bool",
          "name": "",
          "type": "bool"
        }
      ],
      "stateMutability": "view",
      "type": "function",
      "constant": true
    },
    {
      "inputs": [],
      "name": "name",
      "outputs": [
        {
          "internalType": "string",
          "name": "",
          "type": "string"
        }
      ],
      "stateMutability": "view",
      "type": "function",
      "constant": true
    },
    {
      "inputs": [
        {
          "internalType": "uint256",
          "name": "tokenId",
          "type": "uint256"
        }
      ],
      "name": "ownerOf",
      "outputs": [
        {
          "internalType": "address",
          "name": "",
          "type": "address"
        }
      ],
      "stateMutability": "view",
      "type": "function",
      "constant": true
    },
    {
      "inputs": [
        {
          "internalType": "address",
          "name": "from",
          "type": "address"
        },
        {
          "internalType": "address",
          "name": "to",
          "type": "address"
        },
        {
          "internalType": "uint256",
          "name": "tokenId",
          "type": "uint256"
        }
      ],
      "name": "safeTransferFrom",
      "outputs": [],
      "stateMutability": "nonpayable",
      "type": "function"
    },
    {
      "inputs": [
        {
          "internalType": "address",
          "name": "from",
          "type": "address"
        },
        {
          "internalType": "address",
          "name": "to",
          "type": "address"
        },
        {
          "internalType": "uint256",
          "name": "tokenId",
          "type": "uint256"
        },
        {
          "internalType": "bytes",
          "name": "_data",
          "type": "bytes"
        }
      ],
      "name": "safeTransferFrom",
      "outputs": [],
      "stateMutability": "nonpayable",
      "type": "function"
    },
    {
      "inputs": [
        {
          "internalType": "address",
          "name": "operator",
          "type": "address"
        },
        {
          "internalType": "bool",
          "name": "approved",
          "type": "bool"
        }
      ],
      "name": "setApprovalForAll",
      "outputs": [],
      "stateMutability": "nonpayable",
      "type": "function"
    },
    {
      "inputs": [
        {
          "internalType": "bytes4",
          "name": "interfaceId",
          "type": "bytes4"
        }
      ],
      "name": "supportsInterface",
      "outputs": [
        {
          "internalType": "bool",
          "name": "",
          "type": "bool"
        }
      ],
      "stateMutability": "view",
      "type": "function",
      "constant": true
    },
    {
      "inputs": [],
      "name": "symbol",
      "outputs": [
        {
          "internalType": "string",
          "name": "",
          "type": "string"
        }
      ],
      "stateMutability": "view",
      "type": "function",
      "constant": true
    },
    {
      "inputs": [
        {
          "internalType": "uint256",
          "name": "tokenId",
          "type": "uint256"
        }
      ],
      "name": "tokenURI",
      "outputs": [
        {
          "internalType": "string",
          "name": "",
          "type": "string"
        }
      ],
      "stateMutability": "view",
      "type": "function",
      "constant": true
    },
    {
      "inputs": [
        {
          "internalType": "address",
          "name": "from",
          "type": "address"
        },
        {
          "internalType": "address",
          "name": "to",
          "type": "address"
        },
        {
          "internalType": "uint256",
          "name": "tokenId",
          "type": "uint256"
        }
      ],
      "name": "transferFrom",
      "outputs": [],
      "stateMutability": "nonpayable",
      "type": "function"
    },
    {
      "inputs": [],
      "name": "mint",
      "outputs": [
        {
          "internalType": "uint256",
          "name": "",
          "type": "uint256"
        }
      ],
      "stateMutability": "nonpayable",
      "type": "function"
    }
  ],
  "bytecode": "0x608060405260006006553480156200001657600080fd5b506040518060400160405280600881526020017f52484945204e46540000000000000000000000000000000000000000000000008152506040518060400160405280600281526020017f524e00000000000000000000000000000000000000000000000000000000000081525081600090805190602001906200009b929190620000bd565b508060019080519060200190620000b4929190620000bd565b505050620001d1565b828054620000cb906200019c565b90600052602060002090601f016020900481019282620000ef57600085556200013b565b82601f106200010a57805160ff19168380011785556200013b565b828001600101855582156200013b579182015b828111156200013a5782518255916020019190600101906200011d565b5b5090506200014a91906200014e565b5090565b5b80821115620001695760008160009055506001016200014f565b5090565b7f4e487b7100000000000000000000000000000000000000000000000000000000600052602260045260246000fd5b60006002820490506001821680620001b557607f821691505b602082108103620001cb57620001ca6200016d565b5b50919050565b6126ee80620001e16000396000f3fe608060405234801561001057600080fd5b50600436106100ea5760003560e01c80636352211e1161008c578063a22cb46511610066578063a22cb4651461025d578063b88d4fde14610279578063c87b56dd14610295578063e985e9c5146102c5576100ea565b80636352211e146101df57806370a082311461020f57806395d89b411461023f576100ea565b8063095ea7b3116100c8578063095ea7b31461016d5780631249c58b1461018957806323b872dd146101a757806342842e0e146101c3576100ea565b806301ffc9a7146100ef57806306fdde031461011f578063081812fc1461013d575b600080fd5b61010960048036038101906101049190611673565b6102f5565b60405161011691906116bb565b60405180910390f35b6101276103d7565b604051610134919061176f565b60405180910390f35b610157600480360381019061015291906117c7565b610469565b6040516101649190611835565b60405180910390f35b6101876004803603810190610182919061187c565b6104ee565b005b610191610605565b60405161019e91906118cb565b60405180910390f35b6101c160048036038101906101bc91906118e6565b610633565b005b6101dd60048036038101906101d891906118e6565b610693565b005b6101f960048036038101906101f491906117c7565b6106b3565b6040516102069190611835565b60405180910390f35b61022960048036038101906102249190611939565b610764565b60405161023691906118cb565b60405180910390f35b61024761081b565b604051610254919061176f565b60405180910390f35b61027760048036038101906102729190611992565b6108ad565b005b610293600480360381019061028e9190611b07565b6108c3565b005b6102af60048036038101906102aa91906117c7565b610925565b6040516102bc919061176f565b60405180910390f35b6102df60048036038101906102da9190611b8a565b6109cc565b6040516102ec91906116bb565b60405180910390f35b60007f80ac58cd000000000000000000000000000000000000000000000000000000007bffffffffffffffffffffffffffffffffffffffffffffffffffffffff1916827bffffffffffffffffffffffffffffffffffffffffffffffffffffffff191614806103c057507f5b5e139f000000000000000000000000000000000000000000000000000000007bffffffffffffffffffffffffffffffffffffffffffffffffffffffff1916827bffffffffffffffffffffffffffffffffffffffffffffffffffffffff1916145b806103d057506103cf82610a60565b5b9050919050565b6060600080546103e690611bf9565b80601f016020809104026020016040519081016040528092919081815260200182805461041290611bf9565b801561045f5780601f106104345761010080835404028352916020019161045f565b820191906000526020600020905b81548152906001019060200180831161044257829003601f168201915b5050505050905090565b600061047482610aca565b6104b3576040517f08c379a00000000000000000000000000000000000000000000000000000000081526004016104aa90611c9c565b60405180910390fd5b6004600083815260200190815260200160002060009054906101000a900473ffffffffffffffffffffffffffffffffffffffff169050919050565b60006104f9826106b3565b90508073ffffffffffffffffffffffffffffffffffffffff168373ffffffffffffffffffffffffffffffffffffffff1603610569576040517f08c379a000000000000000000000000000000000000000000000000000000000815260040161056090611d2e565b60405180910390fd5b8073ffffffffffffffffffffffffffffffffffffffff16610588610b36565b73ffffffffffffffffffffffffffffffffffffffff1614806105b757506105b6816105b1610b36565b6109cc565b5b6105f6576040517f08c379a00000000000000000000000000000000000000000000000000000000081526004016105ed90611dc0565b60405180910390fd5b6106008383610b3e565b505050565b600061061333600654610bf7565b6006600081548092919061062690611e0f565b9190505550600654905090565b61064461063e610b36565b82610dd0565b610683576040517f08c379a000000000000000000000000000000000000000000000000000000000815260040161067a90611ec9565b60405180910390fd5b61068e838383610eae565b505050565b6106ae838383604051806020016040528060008152506108c3565b505050565b6000806002600084815260200190815260200160002060009054906101000a900473ffffffffffffffffffffffffffffffffffffffff169050600073ffffffffffffffffffffffffffffffffffffffff168173ffffffffffffffffffffffffffffffffffffffff160361075b576040517f08c379a000000000000000000000000000000000000000000000000000000000815260040161075290611f5b565b60405180910390fd5b80915050919050565b60008073ffffffffffffffffffffffffffffffffffffffff168273ffffffffffffffffffffffffffffffffffffffff16036107d4576040517f08c379a00000000000000000000000000000000000000000000000000000000081526004016107cb90611fed565b60405180910390fd5b600360008373ffffffffffffffffffffffffffffffffffffffff1673ffffffffffffffffffffffffffffffffffffffff168152602001908152602001600020549050919050565b60606001805461082a90611bf9565b80601f016020809104026020016040519081016040528092919081815260200182805461085690611bf9565b80156108a35780601f10610878576101008083540402835291602001916108a3565b820191906000526020600020905b81548152906001019060200180831161088657829003601f168201915b5050505050905090565b6108bf6108b8610b36565b8383611114565b5050565b6108d46108ce610b36565b83610dd0565b610913576040517f08c379a000000000000000000000000000000000000000000000000000000000815260040161090a90611ec9565b60405180910390fd5b61091f84848484611280565b50505050565b606061093082610aca565b61096f576040517f08c379a00000000000000000000000000000000000000000000000000000000081526004016109669061207f565b60405180910390fd5b60006109796112dc565b9050600081511161099957604051806020016040528060008152506109c4565b806109a3846112f3565b6040516020016109b49291906120db565b6040516020818303038152906040525b915050919050565b6000600560008473ffffffffffffffffffffffffffffffffffffffff1673ffffffffffffffffffffffffffffffffffffffff16815260200190815260200160002060008373ffffffffffffffffffffffffffffffffffffffff1673ffffffffffffffffffffffffffffffffffffffff16815260200190815260200160002060009054906101000a900460ff16905092915050565b60007f01ffc9a7000000000000000000000000000000000000000000000000000000007bffffffffffffffffffffffffffffffffffffffffffffffffffffffff1916827bffffffffffffffffffffffffffffffffffffffffffffffffffffffff1916149050919050565b60008073ffffffffffffffffffffffffffffffffffffffff166002600084815260200190815260200160002060009054906101000a900473ffffffffffffffffffffffffffffffffffffffff1673ffffffffffffffffffffffffffffffffffffffff1614159050919050565b600033905090565b816004600083815260200190815260200160002060006101000a81548173ffffffffffffffffffffffffffffffffffffffff021916908373ffffffffffffffffffffffffffffffffffffffff160217905550808273ffffffffffffffffffffffffffffffffffffffff16610bb1836106b3565b73ffffffffffffffffffffffffffffffffffffffff167f8c5be1e5ebec7d5bd14f71427d1e84f3dd0314c0f7b2291e5b200ac8c7c3b92560405160405180910390a45050565b600073ffffffffffffffffffffffffffffffffffffffff168273ffffffffffffffffffffffffffffffffffffffff1603610c66576040517f08c379a0000000000000000000000000000000000000000000000000000000008152600401610c5d9061214b565b60405180910390fd5b610c6f81610aca565b15610caf576040517f08c379a0000000000000000000000000000000000000000000000000000000008152600401610ca6906121b7565b60405180910390fd5b610cbb60008383611453565b6001600360008473ffffffffffffffffffffffffffffffffffffffff1673ffffffffffffffffffffffffffffffffffffffff1681526020019081526020016000206000828254610d0b91906121d7565b92505081905550816002600083815260200190815260200160002060006101000a81548173ffffffffffffffffffffffffffffffffffffffff021916908373ffffffffffffffffffffffffffffffffffffffff160217905550808273ffffffffffffffffffffffffffffffffffffffff16600073ffffffffffffffffffffffffffffffffffffffff167fddf252ad1be2c89b69c2b068fc378daa952ba7f163c4a11628f55a4df523b3ef60405160405180910390a4610dcc60008383611458565b5050565b6000610ddb82610aca565b610e1a576040517f08c379a0000000000000000000000000000000000000000000000000000000008152600401610e119061229f565b60405180910390fd5b6000610e25836106b3565b90508073ffffffffffffffffffffffffffffffffffffffff168473ffffffffffffffffffffffffffffffffffffffff161480610e675750610e6681856109cc565b5b80610ea557508373ffffffffffffffffffffffffffffffffffffffff16610e8d84610469565b73ffffffffffffffffffffffffffffffffffffffff16145b91505092915050565b8273ffffffffffffffffffffffffffffffffffffffff16610ece826106b3565b73ffffffffffffffffffffffffffffffffffffffff1614610f24576040517f08c379a0000000000000000000000000000000000000000000000000000000008152600401610f1b90612331565b60405180910390fd5b600073ffffffffffffffffffffffffffffffffffffffff168273ffffffffffffffffffffffffffffffffffffffff1603610f93576040517f08c379a0000000000000000000000000000000000000000000000000000000008152600401610f8a906123c3565b60405180910390fd5b610f9e838383611453565b610fa9600082610b3e565b6001600360008573ffffffffffffffffffffffffffffffffffffffff1673ffffffffffffffffffffffffffffffffffffffff1681526020019081526020016000206000828254610ff991906123e3565b925050819055506001600360008473ffffffffffffffffffffffffffffffffffffffff1673ffffffffffffffffffffffffffffffffffffffff168152602001908152602001600020600082825461105091906121d7565b92505081905550816002600083815260200190815260200160002060006101000a81548173ffffffffffffffffffffffffffffffffffffffff021916908373ffffffffffffffffffffffffffffffffffffffff160217905550808273ffffffffffffffffffffffffffffffffffffffff168473ffffffffffffffffffffffffffffffffffffffff167fddf252ad1be2c89b69c2b068fc378daa952ba7f163c4a11628f55a4df523b3ef60405160405180910390a461110f838383611458565b505050565b8173ffffffffffffffffffffffffffffffffffffffff168373ffffffffffffffffffffffffffffffffffffffff1603611182576040517f08c379a000000000000000000000000000000000000000000000000000000000815260040161117990612463565b60405180910390fd5b80600560008573ffffffffffffffffffffffffffffffffffffffff1673ffffffffffffffffffffffffffffffffffffffff16815260200190815260200160002060008473ffffffffffffffffffffffffffffffffffffffff1673ffffffffffffffffffffffffffffffffffffffff16815260200190815260200160002060006101000a81548160ff0219169083151502179055508173ffffffffffffffffffffffffffffffffffffffff168373ffffffffffffffffffffffffffffffffffffffff167f17307eab39ab6107e8899845ad3d59bd9653f200f220920489ca2b5937696c318360405161127391906116bb565b60405180910390a3505050565b61128b848484610eae565b6112978484848461145d565b6112d6576040517f08c379a00000000000000000000000000000000000000000000000000000000081526004016112cd906124f5565b60405180910390fd5b50505050565b606060405180602001604052806000815250905090565b60606000820361133a576040518060400160405280600181526020017f3000000000000000000000000000000000000000000000000000000000000000815250905061144e565b600082905060005b6000821461136c57808061135590611e0f565b915050600a826113659190612544565b9150611342565b60008167ffffffffffffffff811115611388576113876119dc565b5b6040519080825280601f01601f1916602001820160405280156113ba5781602001600182028036833780820191505090505b5090505b60008514611447576001826113d391906123e3565b9150600a856113e29190612575565b60306113ee91906121d7565b60f81b818381518110611404576114036125a6565b5b60200101907effffffffffffffffffffffffffffffffffffffffffffffffffffffffffffff1916908160001a905350600a856114409190612544565b94506113be565b8093505050505b919050565b505050565b505050565b600061147e8473ffffffffffffffffffffffffffffffffffffffff166115e4565b156115d7578373ffffffffffffffffffffffffffffffffffffffff1663150b7a026114a7610b36565b8786866040518563ffffffff1660e01b81526004016114c9949392919061262a565b6020604051808303816000875af192505050801561150557506040513d601f19601f82011682018060405250810190611502919061268b565b60015b611587573d8060008114611535576040519150601f19603f3d011682016040523d82523d6000602084013e61153a565b606091505b50600081510361157f576040517f08c379a0000000000000000000000000000000000000000000000000000000008152600401611576906124f5565b60405180910390fd5b805181602001fd5b63150b7a0260e01b7bffffffffffffffffffffffffffffffffffffffffffffffffffffffff1916817bffffffffffffffffffffffffffffffffffffffffffffffffffffffff1916149150506115dc565b600190505b949350505050565b6000808273ffffffffffffffffffffffffffffffffffffffff163b119050919050565b6000604051905090565b600080fd5b600080fd5b60007fffffffff0000000000000000000000000000000000000000000000000000000082169050919050565b6116508161161b565b811461165b57600080fd5b50565b60008135905061166d81611647565b92915050565b60006020828403121561168957611688611611565b5b60006116978482850161165e565b91505092915050565b60008115159050919050565b6116b5816116a0565b82525050565b60006020820190506116d060008301846116ac565b92915050565b600081519050919050565b600082825260208201905092915050565b60005b838110156117105780820151818401526020810190506116f5565b8381111561171f576000848401525b50505050565b6000601f19601f8301169050919050565b6000611741826116d6565b61174b81856116e1565b935061175b8185602086016116f2565b61176481611725565b840191505092915050565b600060208201905081810360008301526117898184611736565b905092915050565b6000819050919050565b6117a481611791565b81146117af57600080fd5b50565b6000813590506117c18161179b565b92915050565b6000602082840312156117dd576117dc611611565b5b60006117eb848285016117b2565b91505092915050565b600073ffffffffffffffffffffffffffffffffffffffff82169050919050565b600061181f826117f4565b9050919050565b61182f81611814565b82525050565b600060208201905061184a6000830184611826565b92915050565b61185981611814565b811461186457600080fd5b50565b60008135905061187681611850565b92915050565b6000806040838503121561189357611892611611565b5b60006118a185828601611867565b92505060206118b2858286016117b2565b9150509250929050565b6118c581611791565b82525050565b60006020820190506118e060008301846118bc565b92915050565b6000806000606084860312156118ff576118fe611611565b5b600061190d86828701611867565b935050602061191e86828701611867565b925050604061192f868287016117b2565b9150509250925092565b60006020828403121561194f5761194e611611565b5b600061195d84828501611867565b91505092915050565b61196f816116a0565b811461197a57600080fd5b50565b60008135905061198c81611966565b92915050565b600080604083850312156119a9576119a8611611565b5b60006119b785828601611867565b92505060206119c88582860161197d565b9150509250929050565b600080fd5b600080fd5b7f4e487b7100000000000000000000000000000000000000000000000000000000600052604160045260246000fd5b611a1482611725565b810181811067ffffffffffffffff82111715611a3357611a326119dc565b5b80604052505050565b6000611a46611607565b9050611a528282611a0b565b919050565b600067ffffffffffffffff821115611a7257611a716119dc565b5b611a7b82611725565b9050602081019050919050565b82818337600083830152505050565b6000611aaa611aa584611a57565b611a3c565b905082815260208101848484011115611ac657611ac56119d7565b5b611ad1848285611a88565b509392505050565b600082601f830112611aee57611aed6119d2565b5b8135611afe848260208601611a97565b91505092915050565b60008060008060808587031215611b2157611b20611611565b5b6000611b2f87828801611867565b9450506020611b4087828801611867565b9350506040611b51878288016117b2565b925050606085013567ffffffffffffffff811115611b7257611b71611616565b5b611b7e87828801611ad9565b91505092959194509250565b60008060408385031215611ba157611ba0611611565b5b6000611baf85828601611867565b9250506020611bc085828601611867565b9150509250929050565b7f4e487b7100000000000000000000000000000000000000000000000000000000600052602260045260246000fd5b60006002820490506001821680611c1157607f821691505b602082108103611c2457611c23611bca565b5b50919050565b7f4552433732313a20617070726f76656420717565727920666f72206e6f6e657860008201527f697374656e7420746f6b656e0000000000000000000000000000000000000000602082015250565b6000611c86602c836116e1565b9150611c9182611c2a565b604082019050919050565b60006020820190508181036000830152611cb581611c79565b9050919050565b7f4552433732313a20617070726f76616c20746f2063757272656e74206f776e6560008201527f7200000000000000000000000000000000000000000000000000000000000000602082015250565b6000611d186021836116e1565b9150611d2382611cbc565b604082019050919050565b60006020820190508181036000830152611d4781611d0b565b9050919050565b7f4552433732313a20617070726f76652063616c6c6572206973206e6f74206f7760008201527f6e6572206e6f7220617070726f76656420666f7220616c6c0000000000000000602082015250565b6000611daa6038836116e1565b9150611db582611d4e565b604082019050919050565b60006020820190508181036000830152611dd981611d9d565b9050919050565b7f4e487b7100000000000000000000000000000000000000000000000000000000600052601160045260246000fd5b6000611e1a82611791565b91507fffffffffffffffffffffffffffffffffffffffffffffffffffffffffffffffff8203611e4c57611e4b611de0565b5b600182019050919050565b7f4552433732313a207472616e736665722063616c6c6572206973206e6f74206f60008201527f776e6572206e6f7220617070726f766564000000000000000000000000000000602082015250565b6000611eb36031836116e1565b9150611ebe82611e57565b604082019050919050565b60006020820190508181036000830152611ee281611ea6565b9050919050565b7f4552433732313a206f776e657220717565727920666f72206e6f6e657869737460008201527f656e7420746f6b656e0000000000000000000000000000000000000000000000602082015250565b6000611f456029836116e1565b9150611f5082611ee9565b604082019050919050565b60006020820190508181036000830152611f7481611f38565b9050919050565b7f4552433732313a2062616c616e636520717565727920666f7220746865207a6560008201527f726f206164647265737300000000000000000000000000000000000000000000602082015250565b6000611fd7602a836116e1565b9150611fe282611f7b565b604082019050919050565b6000602082019050818103600083015261200681611fca565b9050919050565b7f4552433732314d657461646174613a2055524920717565727920666f72206e6f60008201527f6e6578697374656e7420746f6b656e0000000000000000000000000000000000602082015250565b6000612069602f836116e1565b91506120748261200d565b604082019050919050565b600060208201905081810360008301526120988161205c565b9050919050565b600081905092915050565b60006120b5826116d6565b6120bf818561209f565b93506120cf8185602086016116f2565b80840191505092915050565b60006120e782856120aa565b91506120f382846120aa565b91508190509392505050565b7f4552433732313a206d696e7420746f20746865207a65726f2061646472657373600082015250565b60006121356020836116e1565b9150612140826120ff565b602082019050919050565b6000602082019050818103600083015261216481612128565b9050919050565b7f4552433732313a20746f6b656e20616c7265616479206d696e74656400000000600082015250565b60006121a1601c836116e1565b91506121ac8261216b565b602082019050919050565b600060208201905081810360008301526121d081612194565b9050919050565b60006121e282611791565b91506121ed83611791565b9250827fffffffffffffffffffffffffffffffffffffffffffffffffffffffffffffffff0382111561222257612221611de0565b5b828201905092915050565b7f4552433732313a206f70657261746f7220717565727920666f72206e6f6e657860008201527f697374656e7420746f6b656e0000000000000000000000000000000000000000602082015250565b6000612289602c836116e1565b91506122948261222d565b604082019050919050565b600060208201905081810360008301526122b88161227c565b9050919050565b7f4552433732313a207472616e736665722066726f6d20696e636f72726563742060008201527f6f776e6572000000000000000000000000000000000000000000000000000000602082015250565b600061231b6025836116e1565b9150612326826122bf565b604082019050919050565b6000602082019050818103600083015261234a8161230e565b9050919050565b7f4552433732313a207472616e7366657220746f20746865207a65726f2061646460008201527f7265737300000000000000000000000000000000000000000000000000000000602082015250565b60006123ad6024836116e1565b91506123b882612351565b604082019050919050565b600060208201905081810360008301526123dc816123a0565b9050919050565b60006123ee82611791565b91506123f983611791565b92508282101561240c5761240b611de0565b5b828203905092915050565b7f4552433732313a20617070726f766520746f2063616c6c657200000000000000600082015250565b600061244d6019836116e1565b915061245882612417565b602082019050919050565b6000602082019050818103600083015261247c81612440565b9050919050565b7f4552433732313a207472616e7366657220746f206e6f6e20455243373231526560008201527f63656976657220696d706c656d656e7465720000000000000000000000000000602082015250565b60006124df6032836116e1565b91506124ea82612483565b604082019050919050565b6000602082019050818103600083015261250e816124d2565b9050919050565b7f4e487b7100000000000000000000000000000000000000000000000000000000600052601260045260246000fd5b600061254f82611791565b915061255a83611791565b92508261256a57612569612515565b5b828204905092915050565b600061258082611791565b915061258b83611791565b92508261259b5761259a612515565b5b828206905092915050565b7f4e487b7100000000000000000000000000000000000000000000000000000000600052603260045260246000fd5b600081519050919050565b600082825260208201905092915050565b60006125fc826125d5565b61260681856125e0565b93506126168185602086016116f2565b61261f81611725565b840191505092915050565b600060808201905061263f6000830187611826565b61264c6020830186611826565b61265960408301856118bc565b818103606083015261266b81846125f1565b905095945050505050565b60008151905061268581611647565b92915050565b6000602082840312156126a1576126a0611611565b5b60006126af84828501612676565b9150509291505056fea2646970667358221220e59d1be26cc0c9332be499b2a7b9214ae6094824fb73dac391d1363a8dd0c55864736f6c634300080d0033",
  "immutableReferences": {},
  "source": "// SPDX-License-Identifier: MIT\n\npragma solidity ^0.8.0;\n\nimport \"@openzeppelin/contracts/token/ERC721/ERC721.sol\";\n\ncontract NFT is ERC721 {\n    constructor() ERC721(\"RHIE NFT\", \"RN\"){}\n\n    uint private _tokenId = 0;\n\n    function mint() external returns (uint){\n        _mint(msg.sender, _tokenId);\n        _tokenId++;\n        return _tokenId;\n    }\n}",
  "sourcePath": "/home/ksrhie/rhither-project/beginner/contracts/NFT.sol",
  "compiler": {
    "name": "solc",
    "version": "0.8.13+commit.abaa5c0e.Emscripten.clang"
  },
  "schemaVersion": "3.4.7",
  "updatedAt": "2022-05-17T17:35:24.002Z",
  "networkType": "ethereum",
  "devdoc": {
    "kind": "dev",
    "methods": {
      "approve(address,uint256)": {
        "details": "See {IERC721-approve}."
      },
      "balanceOf(address)": {
        "details": "See {IERC721-balanceOf}."
      },
      "getApproved(uint256)": {
        "details": "See {IERC721-getApproved}."
      },
      "isApprovedForAll(address,address)": {
        "details": "See {IERC721-isApprovedForAll}."
      },
      "name()": {
        "details": "See {IERC721Metadata-name}."
      },
      "ownerOf(uint256)": {
        "details": "See {IERC721-ownerOf}."
      },
      "safeTransferFrom(address,address,uint256)": {
        "details": "See {IERC721-safeTransferFrom}."
      },
      "safeTransferFrom(address,address,uint256,bytes)": {
        "details": "See {IERC721-safeTransferFrom}."
      },
      "setApprovalForAll(address,bool)": {
        "details": "See {IERC721-setApprovalForAll}."
      },
      "supportsInterface(bytes4)": {
        "details": "See {IERC165-supportsInterface}."
      },
      "symbol()": {
        "details": "See {IERC721Metadata-symbol}."
      },
      "tokenURI(uint256)": {
        "details": "See {IERC721Metadata-tokenURI}."
      },
      "transferFrom(address,address,uint256)": {
        "details": "See {IERC721-transferFrom}."
      }
    },
    "version": 1
  },
  "userdoc": {
    "kind": "user",
    "methods": {},
    "version": 1
  }
}